:0400000081EF3FF05D
:107F020000018EEF3FF092680D0EC16EB50EC06E8D
:107F1200000EC46E000EC36E1200000E936E84EC4F
:107F22003FF0000E026E000E016EB2EC3FF001C097
:107F32000BF002C00CF00BC08AFF1A0E0A6E5E0E26
:107F4200096E6E0EE82EFED7092EFCD70A2EFAD73E
:107F520000D0000E0C6E000E0B6E92EF3FF000EFA1
:107F620000F001C003F0D8900336D89003363C0EDF
:107F72000316C250C30B0310C26EC2B2C3EF3FF06E
:107F8200C7EF3FF0036A032AC8EF3FF0036A010E0E
:107F9200046E032ACFEF3FF0D8900436032ECDEFC4
:107FA2003FF0C2B0D7EF3FF0DBEF3FF0056A052AA2
:107FB200DCEF3FF0056A010E066E052AE3EF3FF0A3
:107FC200D8900636052EE1EF3FF006500410C2129B
:107FD200C2B2EEEF3FF0F0EF3FF0E9EF3FF0C350F7
:107FE200C4CF03F0046A03C004F0036A0310076EEF
:0E7FF2000450086E07C001F008C002F0120033
:020000040020DA
:08000000FFFFFFFFFFFFFFFF00
:020000040030CA
:0E000000000C1F1FFF8385FF0FC00FE00F4095
:00000001FF
