:0400000056EF3EF089
:107CAC00D20EF66E7C0EF76E000EF86E00EE01F042
:107CBC0010EE26F00900F5CFEEFFE550E150FAE1A9
:107CCC0000017CEF3EF03F0006005B004F006600B9
:107CDC006D007D0007007F00670077007C00390095
:107CEC005E0079007100FFFFFFFFFFFF0F0EC16EFA
:107CFC00000E956E92809380948092989398949CA9
:107D0C00000E286E000E276E2568266823682468EE
:107D1C0021682268D9EF3EF028BE9EEF3EF0285035
:107D2C0009E1100E275CD8A09EEF3EF0A0EF3EF0CC
:107D3C00A4EF3EF0000E286E000E276ED89027346C
:107D4C00D96E2834DA6E010ED926000EDA22DF50F5
:107D5C008C6E030E2A6E8A0E296E560EE82EFED7F6
:107D6C00292EFCD72A2EFAD780A0BFEF3EF0C1EF08
:107D7C003EF0D7EF3EF027C025F028C026F07F0E4E
:107D8C002A6ED40E296E320EE82EFED7292EFCD781
:107D9C002A2EFAD780B0D5EF3EF0D7EF3EF0D0EFD9
:107DAC003EF0274A282A252808E12628D8B4E1EFF6
:107DBC003EF0E3EF3EF092EF3EF0000E286E000E28
:107DCC00276E30EF3FF028BEF5EF3EF0285009E16A
:107DDC00100E275CD8A0F5EF3EF0F7EF3EF0FBEF6E
:107DEC003EF0000E286E000E276ED8902734D96E08
:107DFC002834DA6E010ED926000EDA22DF508C6E92
:107E0C00030E2A6E8A0E296E560EE82EFED7292EE8
:107E1C00FCD72A2EFAD781A016EF3FF018EF3FF0CF
:107E2C002EEF3FF027C023F028C024F07F0E2A6EDF
:107E3C00D40E296E320EE82EFED7292EFCD72A2E10
:107E4C00FAD781B02CEF3FF02EEF3FF027EF3FF049
:107E5C00274A282A232808E12428D8B438EF3FF0F1
:107E6C003AEF3FF0E9EF3EF0000E286E000E276E61
:107E7C0087EF3FF028BE4CEF3FF0285009E1100E81
:107E8C00275CD8A04CEF3FF04EEF3FF052EF3FF0A5
:107E9C00000E286E000E276ED8902734D96E283429
:107EAC00DA6E010ED926000EDA22DF508C6E030E2C
:107EBC002A6E8A0E296E560EE82EFED7292EFCD776
:107ECC002A2EFAD782A06DEF3FF06FEF3FF085EFCF
:107EDC003FF027C021F028C022F07F0E2A6ED40E6E
:107EEC00296E320EE82EFED7292EFCD72A2EFAD771
:107EFC0082B083EF3FF085EF3FF07EEF3FF0274AF3
:107F0C00282A212808E12228D8B48FEF3FF091EFDE
:107F1C003FF040EF3FF02350255C2650800A296E3D
:107F2C002450800A2958D8A09EEF3FF0A0EF3FF0D4
:107F3C00B0EF3FF02150255C2650800A296E22506C
:107F4C00800A2958D8A0ADEF3FF0AFEF3FF0B0EF6B
:107F5C003FF089882550235C2450800A296E2650D6
:107F6C00800A2958D8A0BDEF3FF0BFEF3FF0CFEF0C
:107F7C003FF02150235C2450800A296E2250800A45
:107F8C002958D8A0CCEF3FF0CEEF3FF0CFEF3FF029
:107F9C008A882350215C2250800A296E2450800A42
:107FAC002958D8A0DCEF3FF0DEEF3FF0EEEF3FF0CA
:107FBC002550215C2250800A296E2650800A2958AF
:107FCC00D8A0EBEF3FF0EDEF3FF0EEEF3FF08B8CF6
:107FDC00FE0E2A6EA70E296E660EE82EFED7292EEF
:107FEC00FCD72A2EFAD789988A988B9C86EF3EF07C
:047FFC0000EF00F0A2
:020000040020DA
:08000000FFFFFFFFFFFFFFFF00
:020000040030CA
:0E000000000C1F1FFF8385FF0FC00FE00F4095
:00000001FF
