:0400000035EF3FF0A9
:107E6A00000138EF3FF00F0EC16E000E936E8A804C
:107E7A00020E026E450E016EAA0EE82EFED7012EE4
:107E8A00FCD7022EFAD78A82020E026E450E016EC6
:107E9A00AA0EE82EFED7012EFCD7022EFAD78A8424
:107EAA00020E026E450E016EAA0EE82EFED7012EB4
:107EBA00FCD7022EFAD78A86020E026E450E016E92
:107ECA00AA0EE82EFED7012EFCD7022EFAD78A88F0
:107EDA00020E026E450E016EAA0EE82EFED7012E84
:107EEA00FCD7022EFAD78A8A020E026E450E016E5E
:107EFA00AA0EE82EFED7012EFCD7022EFAD78A8CBC
:107F0A00020E026E450E016EAA0EE82EFED7012E53
:107F1A00FCD7022EFAD78A8E020E026E450E016E29
:107F2A00AA0EE82EFED7012EFCD7022EFAD78A9087
:107F3A00020E026E450E016EAA0EE82EFED7012E23
:107F4A00FCD7022EFAD78A92020E026E450E016EF5
:107F5A00AA0EE82EFED7012EFCD7022EFAD78A9453
:107F6A00020E026E450E016EAA0EE82EFED7012EF3
:107F7A00FCD7022EFAD78A96020E026E450E016EC1
:107F8A00AA0EE82EFED7012EFCD7022EFAD78A981F
:107F9A00020E026E450E016EAA0EE82EFED7012EC3
:107FAA00FCD7022EFAD78A9A020E026E450E016E8D
:107FBA00AA0EE82EFED7012EFCD7022EFAD78A9CEB
:107FCA00020E026E450E016EAA0EE82EFED7012E93
:107FDA00FCD7022EFAD78A9E020E026E450E016E59
:107FEA00AA0EE82EFED7012EFCD7022EFAD73CEFB6
:067FFA003FF000EF00F073
:020000040020DA
:08000000FFFFFFFFFFFFFFFF00
:020000040030CA
:0E000000000C1F1FFF8385FF0FC00FE00F4095
:00000001FF
