:040000004AEF08F0CB
:1008000000636F6E7420696E636F727265637461EA
:10081000007465636C65617220636F6E7472610051
:10082000726570697461006573706572650030008F
:100830003100320033003400350036003700380014
:030840003900007C
:10084400000E096E000E086E38EF06F0410E076EBA
:10085400EE0EE82EFED7072EFCD700D08C808C92AB
:100864008C948C9683AE39EF04F03BEF04F057EF91
:1008740004F083BE40EF04F042EF04F03BEF04F0D9
:10088400D8900834D96E0934DA6E0E0ED926000ECB
:10089400DA22030EDE6E000EDD6E340E056E080ED7
:1008A400066EECEC07F0084A092A83AC5CEF04F00E
:1008B4005EEF04F07AEF04F083BC63EF04F065EFBD
:1008C40004F05EEF04F0D8900834D96E0934DA6E7F
:1008D4000E0ED926000EDA22020EDE6E000EDD6E3A
:1008E400320E056E080E066EECEC07F0084A092A73
:1008F40083AA7FEF04F081EF04F09DEF04F083BA44
:1009040086EF04F088EF04F081EF04F0D890083407
:10091400D96E0934DA6E0E0ED926000EDA22010ED3
:10092400DE6E000EDD6E300E056E080E066EECEC0B
:1009340007F0084A092A83A8A2EF04F0A4EF04F000
:10094400ADEF04F083B8A9EF04F0ABEF04F0A4EF2B
:1009540004F0084A092A410E076EEE0EE82EFED76F
:10096400072EFCD700D08C908C828C948C9683AE0E
:10097400BEEF04F0C0EF04F0DCEF04F083BEC5EF7B
:1009840004F0C7EF04F0C0EF04F0D8900834D96E37
:100994000934DA6E0E0ED926000EDA22060EDE6E49
:1009A400000EDD6E3A0E056E080E066EECEC07F0D6
:1009B400084A092A83ACE1EF04F0E3EF04F0FFEF07
:1009C40004F083BCE8EF04F0EAEF04F0E3EF04F092
:1009D400D8900834D96E0934DA6E0E0ED926000E7A
:1009E400DA22050EDE6E000EDD6E380E056E080E80
:1009F400066EECEC07F0084A092A83AA04EF05F016
:100A040006EF05F022EF05F083BA0BEF05F00DEFCA
:100A140005F006EF05F0D8900834D96E0934DA6E83
:100A24000E0ED926000EDA22040EDE6E000EDD6EE6
:100A3400360E056E080E066EECEC07F0084A092A1D
:100A440083A827EF05F029EF05F032EF05F083B80E
:100A54002EEF05F030EF05F029EF05F0084A092ADA
:100A6400410E076EEE0EE82EFED7072EFCD700D0FF
:100A74008C908C928C848C9683AE43EF05F045EF7A
:100A840005F061EF05F083BE4AEF05F04CEF05F089
:100A940045EF05F0D8900834D96E0934DA6E0E0E9D
:100AA400D926000EDA22090EDE6E000EDD6E400E2F
:100AB400056E080E066EECEC07F0084A092A83ACB2
:100AC40066EF05F068EF05F084EF05F083BC6DEF89
:100AD40005F06FEF05F068EF05F0D8900834D96E93
:100AE4000934DA6E0E0ED926000EDA22080EDE6EF6
:100AF400000EDD6E3E0E056E080E066EECEC07F081
:100B0400084A092A83AA89EF05F08BEF05F0A7EFBD
:100B140005F083BA90EF05F092EF05F08BEF05F046
:100B2400D8900834D96E0934DA6E0E0ED926000E28
:100B3400DA22070EDE6E000EDD6E3C0E056E080E28
:100B4400066EECEC07F0084A092A83A8ACEF05F01E
:100B5400AEEF05F0B7EF05F083B8B3EF05F0B5EFEE
:100B640005F0AEEF05F0084A092A410E076EEE0EB5
:100B7400E82EFED7072EFCD700D08C908C928C9454
:100B84008C8683AEC8EF05F0CAEF05F0D3EF05F00D
:100B940083BECFEF05F0D1EF05F0CAEF05F0084AA8
:100BA400092A83ACD8EF05F0DAEF05F0F6EF05F08B
:100BB40083BCDFEF05F0E1EF05F0DAEF05F0D89044
:100BC4000834D96E0934DA6E0E0ED926000EDA22F4
:100BD400000EDE6E000EDD6E2E0E056E080E066E25
:100BE400ECEC07F0084A092A83AAFBEF05F0FDEFB5
:100BF40005F006EF06F083BA02EF06F004EF06F004
:100C0400FDEF05F0084A092A83A80BEF06F00DEF63
:100C140006F016EF06F083B812EF06F014EF06F0B4
:100C24000DEF06F0084A092A80A41BEF06F01DEF19
:100C340006F038EF06F080B422EF06F024EF06F059
:100C44001DEF06F0000E0F6E010E0E6E000E116EFB
:100C5400020E106E000E136E030E126E000E156E51
:100C6400040E146E000E096E040E086E09BE44EFE5
:100C740006F0095009E1040E085CD8A044EF06F020
:100C840046EF06F028EF04F012000F0EC16EF00ECE
:100C9400956EFC0E926ECFEC07F0020E07EC08F096
:100CA400010E07EC08F0898080A45BEF06F05DEF8D
:100CB40006F0A4EF06F080B462EF06F064EF06F0ED
:100CC4005DEF06F018C001F019C002F0000E046ECA
:100CD400020E036E6DEC07F001C016F002C017F0AF
:100CE40016C00AF017C00BF0D8900A360B360A501B
:100CF400185C0C6E0B5019580D6E0C500D10D8A4C6
:100D040086EF06F088EF06F08AEF06F08982899074
:100D140016C00AF017C00BF0D8900A360B360A50EA
:100D2400185C0C6E0B5019580D6E0C040D10D8A4E1
:100D34009EEF06F0A0EF06F0A2EF06F089928980FC
:100D4400184A192A80A6A9EF06F0ABEF06F060EF67
:100D540007F0110E056E080E066EECEC07F0C00EDF
:100D640007EC08F0270E056E080E066EECEC07F093
:100D74001F0E0B6E710E0A6E1E0EE82EFED70A2E83
:100D8400FCD70B2EFAD700D024EF07F0010E07ECA6
:100D940008F022EC04F00E040F10D8A4D4EF06F0EF
:100DA400D6EF06F0F4EF06F0020E10181110D8A4D6
:100DB400DEEF06F0E0EF06F0F4EF06F0030E121893
:100DC4001310D8A4E8EF06F0EAEF06F0F4EF06F00B
:100DD400040E14181510D8B4F2EF06F0F4EF06F070
:100DE40024EF07F0010E07EC08F0010E056E080E63
:100DF400066EECEC07F0C00E07EC08F0200E056E52
:100E0400080E066EECEC07F089808992150E0B6EC5
:100E14004B0E0A6EBE0EE82EFED70A2EFCD70B2E02
:100E2400FAD700D0000E0F6E000E0E6E000E116E7B
:100E3400000E106E000E136E000E126E000E156E74
:100E4400000E146E0E040F10D8A42BEF07F02DEF34
:100E540007F0C8EF06F0020E10181110D8A435EFF1
:100E640007F037EF07F0C8EF06F0030E121813105F
:100E7400D8A43FEF07F041EF07F0C8EF06F0040EE7
:100E840014181510D8A449EF07F04BEF07F0C8EF7A
:100E940006F0010E07EC08F0000E0F6E000E0E6E49
:100EA400000E116E000E106E000E136E000E126E08
:100EB400000E156E000E146E8990898280A865EF6D
:100EC40007F067EF07F056EF06F08992898056EF36
:100ED40006F000EF00F0000E066E04BE76EF07F099
:100EE40074EF07F07CEF07F0036C041ED8B0042AFB
:100EF400010E066E02BE83EF07F081EF07F089EF63
:100F040007F0016C021ED8B0022A010E061A000E68
:100F1400086E000E076E03500410D8B494EF07F067
:100F240096EF07F0BEEF07F0010E056E9EEF07F097
:100F3400D89003360436052A04AEA3EF07F0A5EFD4
:100F440007F09AEF07F0D890073608360350015C93
:100F540004500258D8A0B1EF07F0B3EF07F0B8EF90
:100F640007F00350015E0450025A0780D8900432FF
:100F74000332052EA5EF07F00650D8B4C4EF07F0EE
:100F8400C6EF07F0CAEF07F0076C081ED8B0082AAE
:100F940007C001F008C002F012000F0E936E939484
:100FA400939293900A0E056EBC0EE82EFED7052E82
:100FB400FCD700D0320E07EC08F0280E07EC08F03E
:100FC4000C0E07EC08F0010E07EC08F0060E07EC17
:100FD40008F01200F8EF07F005C0F6FF06C0F7FFAF
:100FE4000800F55021EC08F0054A062A05C0F6FF72
:100FF40006C0F7FF0800F5500009D8A404EF08F074
:1010040006EF08F0EEEF07F01200046E040E036E14
:101014003E0EE82EFED7032EFCD7000E016E0450C0
:1010240037EC08F00438F00B046EA60EE82EFED759
:1010340000D0000E016E045037EC08F01200046E6C
:10104400040E036E3E0EE82EFED7032EFCD7010ECF
:10105400016E045037EC08F00438F00B046E010EF6
:10106400016E045037EC08F01200026E0250F00BCF
:10107400026E8A500F0B8A6E8A5002108A6E01B07B
:1010840002D08A9001D08A808A928A848A9412003B
:1010940000EE0EF00C0EEE6AE806FDE1000EF86EAE
:0A10A400080EF76E000147EF06F09A
:020000040020DA
:08000000FFFFFFFFFFFFFFFF00
:020000040030CA
:0E00000000051F1FFF8385FF0FC00FE00F409C
:00000001FF
