:04000000E3EF3EF0FC
:107DC6000001E6EF3EF00F0EC16E000E936E8A8044
:107DD600060E026E130E016EAE0EE82EFED7012EB3
:107DE600FCD7022EFAD78A82060E026E130E016E99
:107DF600AE0EE82EFED7012EFCD7022EFAD78A84C5
:107E0600060E026E130E016EAE0EE82EFED7012E82
:107E1600FCD7022EFAD78A908A86060E026E130EB9
:107E2600016EAE0EE82EFED7012EFCD7022EFAD733
:107E36008A928A88060E026E130E016EAE0EE82E28
:107E4600FED7012EFCD7022EFAD78A948A8A060E0E
:107E5600026E130E016EAE0EE82EFED7012EFCD773
:107E6600022EFAD78A968A8C060E026E130E016EC1
:107E7600AE0EE82EFED7012EFCD7022EFAD78A9830
:107E86008A8E060E026E130E016EAE0EE82EFED719
:107E9600012EFCD7022EFAD78A9A060E026E130E10
:107EA600016EAE0EE82EFED7012EFCD7022EFAD7B3
:107EB6008A9C060E026E130E016EAE0EE82EFED7DB
:107EC600012EFCD7022EFAD78A9E060E026E130EDC
:107ED600016EAE0EE82EFED7012EFCD7022EFAD783
:107EE6008A8E060E026E130E016EAE0EE82EFED7B9
:107EF600012EFCD7022EFAD78A8C060E026E130EBE
:107F0600016EAE0EE82EFED7012EFCD7022EFAD752
:107F16008A8A060E026E130E016EAE0EE82EFED78C
:107F2600012EFCD7022EFAD78A9E8A88060E026E8A
:107F3600130E016EAE0EE82EFED7012EFCD7022ED2
:107F4600FAD78A9C8A86060E026E130E016EAE0E54
:107F5600E82EFED7012EFCD7022EFAD78A9A8A84FB
:107F6600060E026E130E016EAE0EE82EFED7012E21
:107F7600FCD7022EFAD78A988A82060E026E130E54
:107F8600016EAE0EE82EFED7012EFCD7022EFAD7D2
:107F96008A968A80060E026E130E016EAE0EE82ECB
:107FA600FED7012EFCD7022EFAD78A94060E026E51
:107FB600130E016EAE0EE82EFED7012EFCD7022E52
:107FC600FAD78A92060E026E130E016EAE0EE82ED8
:107FD600FED7012EFCD7022EFAD78A90060E026E25
:107FE600130E016EAE0EE82EFED7012EFCD7022E22
:0A7FF600FAD7EAEF3EF000EF00F0CA
:020000040020DA
:08000000FFFFFFFFFFFFFFFF00
:020000040030CA
:0E000000000C1F1FFF8385FF0FC00FE00F4095
:00000001FF
