:0400000033EF3FF0AB
:107E44003F0006005B004F0066006D007D000700E8
:107E54007F00670077007C0039005E0079007100C4
:107E64000000440EF66E7E0EF76E000EF86E00EE05
:107E740001F010EE22F00900F5CFEEFFE550E150DD
:107E8400FAE1246A236A000148EF3FF00F0EC16E45
:107E94009280928292849286000E936E000E956E6A
:107EA4008A8080A058EF3FF05AEF3FF05CEF3FF03C
:107EB40015C08CFF80A261EF3FF063EF3FF065EFE8
:107EC4003FF003C08CFF80A46AEF3FF06CEF3FF0FB
:107ED4006EEF3FF005C08CFF80A673EF3FF075EFA7
:107EE4003FF077EF3FF007C08CFFFA0E00D0E82E8A
:107EF400FDD78A908A8480A082EF3FF084EF3FF020
:107F040086EF3FF017C08CFF80A28BEF3FF08DEF20
:107F14003FF08FEF3FF009C08CFF80A494EF3FF057
:107F240096EF3FF098EF3FF00BC08CFF80A69DEFDB
:107F34003FF09FEF3FF0A1EF3FF00DC08CFFFA0E32
:107F440000D0E82EFDD78A948A8880A0ACEF3FF059
:107F5400AEEF3FF0B0EF3FF019C08CFF80A2B5EF59
:107F64003FF0B7EF3FF0B9EF3FF00FC08CFF80A4B4
:107F7400BEEF3FF0C0EF3FF0C2EF3FF011C08CFF07
:107F840080A6C7EF3FF0C9EF3FF0CBEF3FF013C03F
:107F94008CFFFA0E00D0E82EFDD78A988A8C80A038
:107FA400D6EF3FF0D8EF3FF0DAEF3FF01BC08CFF85
:107FB40080A2DFEF3FF0E1EF3FF0E3EF3FF01DC0C1
:107FC4008CFF80A4E8EF3FF0EAEF3FF0ECEF3FF0E6
:107FD40001C08CFF80A6F1EF3FF0F3EF3FF0F5EF27
:107FE4003FF01FC08CFFFA0E00D0E82EFDD78A9C0C
:0C7FF40021C08CFF52EF3FF000EF00F0C6
:020000040020DA
:08000000FFFFFFFFFFFFFFFF00
:020000040030CA
:0E000000000C1F1FFF8385FF0FC00FE00F4095
:00000001FF
